:020000040800F2
:100000002004002001110008D9100008DB100008AE
:10001000DD1000081D11000821110008000000007B
:10002000000000000000000000000000DF100008D9
:10003000E110000800000000E3100008E5100008CF
:1000400025110008291100082D11000831110008A0
:1000500035110008391100083D1100084111000850
:100060004511000849110008E91000084D11000869
:100070005111000855110008591100085D110008C0
:100080006111000865110008691100086D11000870
:100090007111000875110008791100087D11000820
:1000A0008111000885110008891100088D110008D0
:1000B0009111000895110008991100089D11000880
:1000C000A1110008A5110008A9110008AD11000830
:1000D000B1110008B5110008B9110008BD110008E0
:1000E000C1110008C5110008C9110008CD11000890
:1000F000D1110008D5110008D9110008DD11000840
:10010000E1110008E5110008E9110008ED110008EF
:10011000F1110008F5110008F9110008FD1100089F
:100120000112000805120008091200080D1200084B
:100130001112000815120008191200084FF0B04003
:10014000006800F0F000B02888BFB02070472DE9AB
:10015000F041040062D0207881064FF0B04533D5DD
:10016000A868E96810F00C0001F0030104D00C2825
:1001700008BF012940F07E802868810702D5E06928
:1001800000284BD0FFF7DAFF616A884207D20846A1
:1001900000F0A0FB002815D100F052FA0AE0286810
:1001A00020F0F000014300F050FA606A00F092FB8A
:1001B000002807D100F032FCDFF8B407006800F037
:1001C0007DFC002840F08E812078C10711D5A868F9
:1001D000E96800F00C00082801F0030103D00C28A6
:1001E00008BF032969D12868810302D56068002807
:1001F00014D0217888071AD5A868E96800F00C00A7
:10020000042801F0030104D00C2808BF022940F0A3
:100210008D802868410503D5E068002800F06281E0
:100220006868216920F0FE4040EA0160686021684A
:10023000DFF8406711F0180F00F076816069002840
:1002400000F0AF80C806706840F19C80800708D439
:10025000716841F00101716000F052FC074670685E
:10026000800700F1418100F04BFCC01B0328F6D34E
:100270000320DEE1E06978B1296841F0010100F076
:10028000CEFA06462868800700F13D8100F038FC70
:10029000801B0328F6D3EBE728684008400028605D
:1002A00000F02EFC0646286800F0C6F98CD000F05D
:1002B00027FC801B0328F6D3DAE76068B0F5803F9F
:1002C00004D1286840F48030286011E0B0F5A02FF8
:1002D000286806D140F480202860296841F48031E4
:1002E00005E020F480302860296821F4802129600D
:1002F000606860B100F004FC0646286880033FF5A2
:1003000078AF00F0FDFB801B6528F6D3B0E700F066
:10031000F7FB06462868400C10F001003FF469AF77
:1003200000F0EEFB801B6528F4D3A1E7E06878B10C
:10033000296841F4807100F072FA06462868400589
:100340003FF56EAF00F0DCFB801B0328F6D38FE790
:10035000286820F48070286000F0D2FB06462868E8
:10036000800A10F001003FF462AF00F0C9FB801B6F
:100370000328F4D37CE700F0C3FBC01B0328C0F0C4
:10038000CF8075E740F0010000F070F90746706813
:10039000800700F1E08000F0B3FBC01B0328F6D318
:1003A00066E7706820F0040000F060F907467068A6
:1003B000C00810F0010000F0DD8000F0A1FBC01BC0
:1003C0000428F4D354E70528306806D140F004002F
:1003D0003060316841F0010105E0400840003060C4
:1003E000316821F004013160A06841F2893768B1B9
:1003F00000F086FB80463068800700F1D08000F076
:100400007FFBA0EB0800B842F5D331E700F078FBA2
:100410008046306800F010F900F0C18000F070FBF9
:10042000A0EB0800B842F4D322E700F069FBC01B40
:100430000328C0F0C2801BE740084000B06000F015
:100440005FFB0746B06800F0F7F800F0BA8000F0F4
:1004500057FBC01B0328F5D30AE700F051FB801BB4
:100460000328C0F0C08003E700F04AFB001B03280C
:10047000C0F0DA80FCE6E968DFF8FC04890889004E
:10048000E960E9680140E96000F03AFB044600F0E9
:10049000E5F825D000F034FB001B0328F7D3E7E68E
:1004A00001281FD0E868226B00F00301914202BFCF
:1004B00000F07001626B914214D1A26BC0F306216F
:1004C000914202BF00F47811E26B91420AD1226C92
:1004D00000F06061914202BF00F06040616C8842B0
:1004E00000F0A6800120A4E0706840F0040000F055
:1004F000BDF807467068000708D400F001FBC01B78
:100500000428F7D3B4E600F09BF85DE67068A169B3
:1005100020F4706040EA0120706000F0A4F8074603
:1005200000F089F87FF427AF2078410737D5DFF84E
:100530004C743868C10529D400F0E8FA00F0E0FAFC
:1005400080463868C10521D400F0DAFAA0EB080033
:100550000328F6D38CE6706820F0040070607068A1
:10056000C00810F00100DFD000F0CAFAC01B042858
:10057000F5D37DE600F077F8074600F05CF8D3D0BD
:1005800000F0BEFAC01B0328F7D371E6A06801286B
:100590007FF419AF306840F00100306024E7217823
:1005A0004A060ED5A06A0028B0683FF445AF40F077
:1005B0000100B06000F0A4FA0746B06880077FF53C
:1005C00034AFE06AA0B3A96801F00C010C293FF434
:1005D00067AF0228286820F0807028607FF44BAF56
:1005E00000F08EFA064600F039F87FF436AFEA687C
:1005F000DFF88C03216BA36B0240606B0A4302435C
:10060000E16B206C42EA03220A43616C02430A4315
:10061000EA60286840F080702860E96841F0805105
:10062000E96000F06DFA0446286880017FF51CAF90
:100630000020BDE8F0817068400810F001007047AC
:100640002968606A21F0F001014329606968206A25
:1006500021F47F4141EA0021696070472868400E1B
:1006600010F001007047706840084000706000F0B2
:1006700047BA2DE9F8430400884646D0DFF8046302
:1006800000F0C8F849D200F0CDF8074600F0C2F8F3
:1006900043D000F035FAC01B0228F7D90320B7E099
:1006A00000F02EFA401B022845D9F7E700F028FA9F
:1006B000A0EB090002284ED9F0E700F021FAA0EBE8
:1006C0000900022856D9E9E700F01AFA401B02286F
:1006D0005FD9E3E700F014FA401B022869D9DDE78F
:1006E00000F00EFA401B41F28931884275D3D5E7FC
:1006F000032802D13968890103E00028396802D152
:10070000890762D401E049055FD4012080E000F050
:10071000F7F9C01B022870D9C0E7207881074FF095
:10072000B0470BD5BA68A06822F0F0020243BA6065
:1007300000F0E6F90546B868C003B1D52178DFF8C6
:10074000285288060AD52968606921F0F001014322
:1007500000F065F8814628688003A7D5217848060F
:100760000BD52968A0690909090141EA101100F0B7
:1007700056F881462868C0039FD5217848070BD5D5
:10078000B968E06821F4E0610143B96000F0B8F9AC
:100790000546B868800397D5217808070CD5B96855
:1007A000206921F4605141EAC001B96000F0A8F964
:1007B0000546B86840038DD52178C80715D560680F
:1007C000022895D1396889039FD5BA68920840EA12
:1007D0008200B86000F094F90546B868616800F0DE
:1007E0000C00B0EB810F7FF47BAF306800F00700A6
:1007F000804505D200F016F8074600F00BF886D1C8
:1008000000F00CF900F09EF9BDE8F24300F056B993
:10081000BDE8F283306800F007004045704729606A
:1008200000F06EB93168C90848EAC101316000F0D2
:1008300067B938B54FF0B044544DA16811F00C01C0
:1008400006D1FFF77BFCC0F3031055F8200032BD42
:1008500004294F4A01D1104632BD08294D48434B67
:1008600004D12168C90225D5184632BDE16801F0DE
:100870000301022902D0032902D006E010460AE053
:100880002168C90207D5184605E0FFF757FCC0F3F9
:10089000031055F82000E168E268E368C1F306211F
:1008A0004843C2F30211491C5B0FB0FBF1F05B1C23
:1008B000B0FBF3F032BD80B5FFF7BBFF3249FFE775
:1008C000354A0968C1F3031152F82110B0FBF1F069
:1008D00002BD000070B52D49B1282EBFCC6AC0F30F
:1008E000031051F820402048056800F033F92A49E8
:1008F00005F00F0551F825202849B4FBF2F2002439
:10090000B2FBF1F1B0F5007F2CA2204609D100BF67
:1009100023A353F820508D4214D2401C0328F8D949
:1009200012E000BF22A353F820508D420AD2401C8F
:100930000328F8D308E000F0E3F8801B03280CD369
:10094000032070BD52F820400E4D2868C00844EACC
:10095000C000286000F0D4F80646286800F00700C0
:10096000A042E8D1002070BD0801005800093D00F8
:100970000400002090000058FFFFFEEE0004005825
:100980008C80C1110040005808000058A80F0008D2
:100990000024F40000127A00680F000840420F00A3
:1009A000120000002400000036000000400000009B
:1009B000060000000C000000100000000000000015
:1009C0000100000002000000030000003249002086
:1009D00008604FF0B0413148026842F47002026092
:1009E0004FF4E022086840F0010008608A600B685C
:1009F0002B4803402B480B60026822F0050202607E
:100A0000002243685B085B0043602748C8600861B8
:100A1000086820F4802008608A61704710B54FF0A4
:100A2000B04222491068C0F3031001EB8003186C38
:100A3000936803F00C03042B04D0082B04D00C2B78
:100A400004D01CE01A481AE01A4818E0D368D468A9
:100A5000C4F3021403F00303641C022B08BF144800
:100A600002D0032B08BF1348B0FBF4F3D068D4685E
:100A7000C0F30620640F4343641CB3FBF4F00E4B39
:100A8000186090681A68C0F3031051F82000B2FB98
:100A9000F0F0186010BD000008ED00E088ED00E007
:100AA000FBFEF6FA9400005800100422680F0008BC
:100AB0000024F40000127A001800002070B50F4ED8
:100AC0000446B0680025A8B1FFF7F5FEB2684FF400
:100AD0007A71B1FBF2F2B0FBF2F000F085F848B9A0
:100AE000102C07D2002221464FF0FF3000F054F8BE
:100AF000746000E00125284670BD00BF00000020A2
:100B000001480068704700BF0000002002480168EB
:100B100041F4807101607047000400580B4810B523
:100B2000016841F480710160032000F028F8002082
:100B3000FFF7C4FF0024002814BF012400F074F85C
:100B4000204610BD02484068704700000040005831
:100B500000000020DFF80800006800F4C060704763
:100B6000000400580901020002D42948815470474A
:100B7000284B02F00F021A4402F8041C7047264B5F
:100B800019684FF6FF020002114000F4E0600843CC
:100B9000224908431860704738B51F4B1C68C4F3DE
:100BA0000223C3F10704052C28BF04241D1D072DB3
:100BB00034BF0023DB1E012505FA04F4641E214026
:100BC000994005FA03F35B1E1A401143BDE8344017
:100BD000C8E7010007D4012200F01F01104B8A4032
:100BE000400943F82020704710B5401EB0F1807FC7
:100BF00001D3012010BD0B4C60600F214FF0FF307E
:100C0000FFF7B0FF0021A16007202060002010BD89
:100C100000E400E018ED00E00CED00E00000FA0553
:100C200000E100E010E000E0704700002DE9F04135
:100C300006460A464FF0000C4FF00F082CE05D4FBF
:100C4000BE4214BF4FF0070E4FF0040E0EFA01F132
:100C5000294344F82310C143574C236855680B407F
:100C6000ED0348BF03432360636855680B40AD0341
:100C700048BF03436360514C236855680B40ED0245
:100C800048BF0343236063680B4051688D0248BF2F
:100C9000034363600CF1010C106830FA0CF172D060
:100CA000012303FA0CF31840F4D05468022C18BF47
:100CB000122C4FEA8C010ED14FEADC0406EB8404BF
:100CC00001F01C0E256A08FA0EF7BD43176907FAF2
:100CD0000EF73D4325624FEA4C0403253768A540D3
:100CE000ED4305EA070E177907F00307A74047EA27
:100CF0000E0737605768012F18BF022F03D0112F3E
:100D000018BF122F11D1B76805EA070ED768A740A0
:100D100047EA0E07B760776827EA03035768C7F307
:100D2000001707FA0CF73B437360F3681D409368A4
:100D300003FA04F42C43F4605468E300AAD5204C71
:100D40004FEA9C0354F8237001F00C0108FA01F5F6
:100D5000B6F1904F27EA050508BF4FF0000E11D0FD
:100D6000184FBE4208BF4FF0010E0BD0164FBE42C7
:100D700008BF4FF0020E05D0144FBE427FF45FAFA4
:100D80004FF0030E62E7BDE8F0810AB18161704760
:100D90008162704742690A4201D081627047816175
:100DA00070470B4A136803421CBF106000F077B80D
:100DB00070470000001000488008005800080058E4
:100DC000080001400004004800080048000C0048EA
:100DD0000C08005880B586B0FFF7A0FE00F026F89A
:100DE000012000F06FF80E48016841F00401016035
:100DF000012200680B4900F00400009000980A48A6
:100E0000029103921021019101A9FFF70FFF002227
:100E100002210A20FFF7C0FE0A20FFF7DAFEFEE7F4
:100E20004C000058000021100008004800B599B09F
:100E300007A8482100F07AF868461C2100F076F8EF
:100E400000220F92012102220E91129260210022B3
:100E50001091149201214FF4002213911692202038
:100E6000079015904FF0005104221891179207A88F
:100E7000FFF76DF900B1FEE7032101916F2080219A
:100E8000009000220591029203920492069203219F
:100E90006846FFF7EEFB00B1FEE719B000BD102871
:100EA00004BF012000F032B8704700001B4981B038
:100EB0000A6802430A60096808400090009801B07F
:100EC0007047000078B585B004466846142100F0EC
:100ED0002DF80220FFF7EAFF12A1114E31F814504D
:100EE000009501210191002202210292039169469D
:100EF00056F82400FFF79AFE00F002F806B070BD25
:100F000056F8240000222946FFF73FBF05A2044BF4
:100F100032F8101053F82000FFF73CBF4C00005887
:100F20000C0000202000010002000000002200F060
:100F300001B8000000B500BF130096469446103972
:100F400028BFA0E80C50FAD85FEA417C28BF0CC04B
:100F500048BF40F8042BC90728BF20F8022B48BF20
:100F600000F8012B00BD000001000000030000009C
:100F70000500000001000000010000000600000064
:100F80000A00000020000000020000000400000031
:100F90000800000010000000400000008000000079
:100FA0000001000000020000A0860100400D0300C7
:100FB000801A060000350C0040420F0080841E009D
:100FC00000093D0000127A000024F40000366E0192
:100FD0000048E801006CDC02000000000000000096
:100FE000000000000000000030B450F8041B79B18C
:100FF0000268436802440830DC0744BFA9F10104D9
:10100000E31852F8045B43F8045B091FF9D1ECE7DD
:1010100030BC704710B5074979441831064C7C4400
:10102000163404E00A68081D114488470146A142AD
:10103000F8D110BD2C0000003C0000004EF6885195
:10104000CEF20001086840F470000860BFF34F8FD3
:10105000BFF36F8F4FF00070E1EE100A7047000091
:1010600089FFFFFF1C00000054000000000000206A
:101070000000000000F00DF8002801D0FFF7CAFFC3
:10108000AFF300800020AFF30080FFF7A3FE00F075
:1010900002F80120704700F001B80000074638460A
:1010A00000F002F8FBE7000080B5AFF30080024AD1
:1010B00011001820ABBEFBE7260002000000000074
:1010C0001000000001000000000400480004004877
:1010D0000004004800093D007047FEE7FEE7704746
:1010E0007047704700F004B81020FFF75ABE0000A8
:1010F00002490A68886882180A6070470000002068
:101100000148804701480047CD0900081111000837
:10111000AFF30080FFF792FFFFF7ACFFFFF7FEBFD2
:10112000FFF7FEBFFFF7FEBFFFF7FEBFFFF7FEBFF3
:10113000FFF7FEBFFFF7FEBFFFF7FEBFFFF7FEBFE3
:10114000FFF7FEBFFFF7FEBFFFF7FEBFFFF7FEBFD3
:10115000FFF7FEBFFFF7FEBFFFF7FEBFFFF7FEBFC3
:10116000FFF7FEBFFFF7FEBFFFF7FEBFFFF7FEBFB3
:10117000FFF7FEBFFFF7FEBFFFF7FEBFFFF7FEBFA3
:10118000FFF7FEBFFFF7FEBFFFF7FEBFFFF7FEBF93
:10119000FFF7FEBFFFF7FEBFFFF7FEBFFFF7FEBF83
:1011A000FFF7FEBFFFF7FEBFFFF7FEBFFFF7FEBF73
:1011B000FFF7FEBFFFF7FEBFFFF7FEBFFFF7FEBF63
:1011C000FFF7FEBFFFF7FEBFFFF7FEBFFFF7FEBF53
:1011D000FFF7FEBFFFF7FEBFFFF7FEBFFFF7FEBF43
:1011E000FFF7FEBFFFF7FEBFFFF7FEBFFFF7FEBF33
:1011F000FFF7FEBFFFF7FEBFFFF7FEBFFFF7FEBF23
:10120000FFF7FEBFFFF7FEBFFFF7FEBFFFF7FEBF12
:0C121000FFF7FEBFFFF7FEBFFFF7FEBFB9
:0400000508001111CD
:00000001FF
